{
  "contractName": "ERC1973",
  "abi": [
    {
      "constant": true,
      "inputs": [],
      "name": "name",
      "outputs": [
        {
          "name": "",
          "type": "string"
        }
      ],
      "payable": false,
      "stateMutability": "view",
      "type": "function"
    },
    {
      "constant": false,
      "inputs": [
        {
          "name": "spender",
          "type": "address"
        },
        {
          "name": "amount",
          "type": "uint256"
        }
      ],
      "name": "approve",
      "outputs": [
        {
          "name": "",
          "type": "bool"
        }
      ],
      "payable": false,
      "stateMutability": "nonpayable",
      "type": "function"
    },
    {
      "constant": true,
      "inputs": [
        {
          "name": "",
          "type": "address"
        }
      ],
      "name": "participantMask",
      "outputs": [
        {
          "name": "",
          "type": "uint256"
        }
      ],
      "payable": false,
      "stateMutability": "view",
      "type": "function"
    },
    {
      "constant": true,
      "inputs": [],
      "name": "totalSupply",
      "outputs": [
        {
          "name": "",
          "type": "uint256"
        }
      ],
      "payable": false,
      "stateMutability": "view",
      "type": "function"
    },
    {
      "constant": true,
      "inputs": [],
      "name": "tokensPerBlock",
      "outputs": [
        {
          "name": "",
          "type": "uint256"
        }
      ],
      "payable": false,
      "stateMutability": "view",
      "type": "function"
    },
    {
      "constant": false,
      "inputs": [
        {
          "name": "sender",
          "type": "address"
        },
        {
          "name": "recipient",
          "type": "address"
        },
        {
          "name": "amount",
          "type": "uint256"
        }
      ],
      "name": "transferFrom",
      "outputs": [
        {
          "name": "",
          "type": "bool"
        }
      ],
      "payable": false,
      "stateMutability": "nonpayable",
      "type": "function"
    },
    {
      "constant": true,
      "inputs": [],
      "name": "blockFreezeInterval",
      "outputs": [
        {
          "name": "",
          "type": "uint256"
        }
      ],
      "payable": false,
      "stateMutability": "view",
      "type": "function"
    },
    {
      "constant": true,
      "inputs": [],
      "name": "decimals",
      "outputs": [
        {
          "name": "",
          "type": "uint8"
        }
      ],
      "payable": false,
      "stateMutability": "view",
      "type": "function"
    },
    {
      "constant": false,
      "inputs": [
        {
          "name": "spender",
          "type": "address"
        },
        {
          "name": "addedValue",
          "type": "uint256"
        }
      ],
      "name": "increaseAllowance",
      "outputs": [
        {
          "name": "",
          "type": "bool"
        }
      ],
      "payable": false,
      "stateMutability": "nonpayable",
      "type": "function"
    },
    {
      "constant": false,
      "inputs": [
        {
          "name": "account",
          "type": "address"
        },
        {
          "name": "amount",
          "type": "uint256"
        }
      ],
      "name": "mint",
      "outputs": [
        {
          "name": "",
          "type": "bool"
        }
      ],
      "payable": false,
      "stateMutability": "nonpayable",
      "type": "function"
    },
    {
      "constant": true,
      "inputs": [
        {
          "name": "account",
          "type": "address"
        }
      ],
      "name": "balanceOf",
      "outputs": [
        {
          "name": "",
          "type": "uint256"
        }
      ],
      "payable": false,
      "stateMutability": "view",
      "type": "function"
    },
    {
      "constant": true,
      "inputs": [],
      "name": "tokencontractAddress",
      "outputs": [
        {
          "name": "",
          "type": "address"
        }
      ],
      "payable": false,
      "stateMutability": "view",
      "type": "function"
    },
    {
      "constant": true,
      "inputs": [],
      "name": "symbol",
      "outputs": [
        {
          "name": "",
          "type": "string"
        }
      ],
      "payable": false,
      "stateMutability": "view",
      "type": "function"
    },
    {
      "constant": false,
      "inputs": [
        {
          "name": "account",
          "type": "address"
        }
      ],
      "name": "addMinter",
      "outputs": [],
      "payable": false,
      "stateMutability": "nonpayable",
      "type": "function"
    },
    {
      "constant": false,
      "inputs": [],
      "name": "renounceMinter",
      "outputs": [],
      "payable": false,
      "stateMutability": "nonpayable",
      "type": "function"
    },
    {
      "constant": true,
      "inputs": [],
      "name": "totalParticipants",
      "outputs": [
        {
          "name": "",
          "type": "uint256"
        }
      ],
      "payable": false,
      "stateMutability": "view",
      "type": "function"
    },
    {
      "constant": false,
      "inputs": [
        {
          "name": "spender",
          "type": "address"
        },
        {
          "name": "subtractedValue",
          "type": "uint256"
        }
      ],
      "name": "decreaseAllowance",
      "outputs": [
        {
          "name": "",
          "type": "bool"
        }
      ],
      "payable": false,
      "stateMutability": "nonpayable",
      "type": "function"
    },
    {
      "constant": false,
      "inputs": [
        {
          "name": "recipient",
          "type": "address"
        },
        {
          "name": "amount",
          "type": "uint256"
        }
      ],
      "name": "transfer",
      "outputs": [
        {
          "name": "",
          "type": "bool"
        }
      ],
      "payable": false,
      "stateMutability": "nonpayable",
      "type": "function"
    },
    {
      "constant": true,
      "inputs": [
        {
          "name": "account",
          "type": "address"
        }
      ],
      "name": "isMinter",
      "outputs": [
        {
          "name": "",
          "type": "bool"
        }
      ],
      "payable": false,
      "stateMutability": "view",
      "type": "function"
    },
    {
      "constant": true,
      "inputs": [],
      "name": "roundMask",
      "outputs": [
        {
          "name": "",
          "type": "uint256"
        }
      ],
      "payable": false,
      "stateMutability": "view",
      "type": "function"
    },
    {
      "constant": true,
      "inputs": [
        {
          "name": "owner",
          "type": "address"
        },
        {
          "name": "spender",
          "type": "address"
        }
      ],
      "name": "allowance",
      "outputs": [
        {
          "name": "",
          "type": "uint256"
        }
      ],
      "payable": false,
      "stateMutability": "view",
      "type": "function"
    },
    {
      "constant": true,
      "inputs": [],
      "name": "lastMintedBlockNumber",
      "outputs": [
        {
          "name": "",
          "type": "uint256"
        }
      ],
      "payable": false,
      "stateMutability": "view",
      "type": "function"
    },
    {
      "inputs": [
        {
          "name": "_tokensPerBlock",
          "type": "uint256"
        },
        {
          "name": "_blockFreezeInterval",
          "type": "uint256"
        }
      ],
      "payable": false,
      "stateMutability": "nonpayable",
      "type": "constructor"
    },
    {
      "anonymous": false,
      "inputs": [
        {
          "indexed": true,
          "name": "account",
          "type": "address"
        }
      ],
      "name": "MinterAdded",
      "type": "event"
    },
    {
      "anonymous": false,
      "inputs": [
        {
          "indexed": true,
          "name": "account",
          "type": "address"
        }
      ],
      "name": "MinterRemoved",
      "type": "event"
    },
    {
      "anonymous": false,
      "inputs": [
        {
          "indexed": true,
          "name": "from",
          "type": "address"
        },
        {
          "indexed": true,
          "name": "to",
          "type": "address"
        },
        {
          "indexed": false,
          "name": "value",
          "type": "uint256"
        }
      ],
      "name": "Transfer",
      "type": "event"
    },
    {
      "anonymous": false,
      "inputs": [
        {
          "indexed": true,
          "name": "owner",
          "type": "address"
        },
        {
          "indexed": true,
          "name": "spender",
          "type": "address"
        },
        {
          "indexed": false,
          "name": "value",
          "type": "uint256"
        }
      ],
      "name": "Approval",
      "type": "event"
    },
    {
      "constant": false,
      "inputs": [
        {
          "name": "_minter",
          "type": "address"
        }
      ],
      "name": "addMinters",
      "outputs": [
        {
          "name": "",
          "type": "bool"
        }
      ],
      "payable": false,
      "stateMutability": "nonpayable",
      "type": "function"
    },
    {
      "constant": false,
      "inputs": [
        {
          "name": "_minter",
          "type": "address"
        }
      ],
      "name": "removeMinters",
      "outputs": [
        {
          "name": "",
          "type": "bool"
        }
      ],
      "payable": false,
      "stateMutability": "nonpayable",
      "type": "function"
    },
    {
      "constant": false,
      "inputs": [],
      "name": "trigger",
      "outputs": [
        {
          "name": "",
          "type": "bool"
        }
      ],
      "payable": false,
      "stateMutability": "nonpayable",
      "type": "function"
    },
    {
      "constant": false,
      "inputs": [],
      "name": "withdraw",
      "outputs": [
        {
          "name": "",
          "type": "bool"
        }
      ],
      "payable": false,
      "stateMutability": "nonpayable",
      "type": "function"
    },
    {
      "constant": true,
      "inputs": [],
      "name": "readyToMint",
      "outputs": [
        {
          "name": "",
          "type": "bool"
        }
      ],
      "payable": false,
      "stateMutability": "view",
      "type": "function"
    }
  ],
  "bytecode": "0x6080604052600060095530600c60006101000a81548173ffffffffffffffffffffffffffffffffffffffff021916908373ffffffffffffffffffffffffffffffffffffffff1602179055503480156200005757600080fd5b5060405160408062002701833981018060405260408110156200007957600080fd5b8101908080519060200190929190805190602001909291905050506040518060400160405280600681526020017f53696d706c6500000000000000000000000000000000000000000000000000008152506040518060400160405280600381526020017f53494d0000000000000000000000000000000000000000000000000000000000815250601262000122620001166200018f60201b60201c565b6200019760201b60201c565b82600490805190602001906200013a929190620003bc565b50816005908051906020019062000153929190620003bc565b5080600660006101000a81548160ff021916908360ff1602179055505050504360088190555081600a8190555080600b8190555050506200046b565b600033905090565b620001b2816003620001f860201b62001d211790919060201c565b8073ffffffffffffffffffffffffffffffffffffffff167f6ae172837ea30b801fbfcdd4108aa1d5bf8ff775444fd70256b44e6bf3dfc3f660405160405180910390a250565b6200020a8282620002dc60201b60201c565b156200027e576040517f08c379a000000000000000000000000000000000000000000000000000000000815260040180806020018281038252601f8152602001807f526f6c65733a206163636f756e7420616c72656164792068617320726f6c650081525060200191505060405180910390fd5b60018260000160008373ffffffffffffffffffffffffffffffffffffffff1673ffffffffffffffffffffffffffffffffffffffff16815260200190815260200160002060006101000a81548160ff0219169083151502179055505050565b60008073ffffffffffffffffffffffffffffffffffffffff168273ffffffffffffffffffffffffffffffffffffffff16141562000365576040517f08c379a0000000000000000000000000000000000000000000000000000000008152600401808060200182810382526022815260200180620026df6022913960400191505060405180910390fd5b8260000160008373ffffffffffffffffffffffffffffffffffffffff1673ffffffffffffffffffffffffffffffffffffffff16815260200190815260200160002060009054906101000a900460ff16905092915050565b828054600181600116156101000203166002900490600052602060002090601f016020900481019282601f10620003ff57805160ff191683800117855562000430565b8280016001018555821562000430579182015b828111156200042f57825182559160200191906001019062000412565b5b5090506200043f919062000443565b5090565b6200046891905b80821115620004645760008160009055506001016200044a565b5090565b90565b612264806200047b6000396000f3fe608060405234801561001057600080fd5b50600436106101a95760003560e01c806370a08231116100f9578063a457c2d711610097578063d6656b7411610071578063d6656b7414610874578063dd62ed3e14610892578063ddf9ce241461090a578063f62988d91461092c576101a9565b8063a457c2d71461074c578063a9059cbb146107b2578063aa271e1a14610818576101a9565b806395d89b41116100d357806395d89b411461065d578063983b2d56146106e05780639865027514610724578063a26dbf261461072e576101a9565b806370a08231146105995780637fec8d38146105f157806388dcc43614610613576101a9565b806323b872dd1161016657806331c89bb61161014057806331c89bb61461044f57806339509351146104ab5780633ccfd60b1461051157806340c10f1914610533576101a9565b806323b872dd1461038757806327f2c4511461040d578063313ce5671461042b576101a9565b806306fdde03146101ae578063095ea7b31461023157806311a570fe1461029757806318160ddd146102ef57806319df0bc21461030d5780631a1cb01f14610369575b600080fd5b6101b661094a565b6040518080602001828103825283818151815260200191508051906020019080838360005b838110156101f65780820151818401526020810190506101db565b50505050905090810190601f1680156102235780820380516001836020036101000a031916815260200191505b509250505060405180910390f35b61027d6004803603604081101561024757600080fd5b81019080803573ffffffffffffffffffffffffffffffffffffffff169060200190929190803590602001909291905050506109ec565b604051808215151515815260200191505060405180910390f35b6102d9600480360360208110156102ad57600080fd5b81019080803573ffffffffffffffffffffffffffffffffffffffff169060200190929190505050610a0a565b6040518082815260200191505060405180910390f35b6102f7610a22565b6040518082815260200191505060405180910390f35b61034f6004803603602081101561032357600080fd5b81019080803573ffffffffffffffffffffffffffffffffffffffff169060200190929190505050610a2c565b604051808215151515815260200191505060405180910390f35b610371610a66565b6040518082815260200191505060405180910390f35b6103f36004803603606081101561039d57600080fd5b81019080803573ffffffffffffffffffffffffffffffffffffffff169060200190929190803573ffffffffffffffffffffffffffffffffffffffff16906020019092919080359060200190929190505050610a6c565b604051808215151515815260200191505060405180910390f35b610415610b45565b6040518082815260200191505060405180910390f35b610433610b4b565b604051808260ff1660ff16815260200191505060405180910390f35b6104916004803603602081101561046557600080fd5b81019080803573ffffffffffffffffffffffffffffffffffffffff169060200190929190505050610b62565b604051808215151515815260200191505060405180910390f35b6104f7600480360360408110156104c157600080fd5b81019080803573ffffffffffffffffffffffffffffffffffffffff16906020019092919080359060200190929190505050610b92565b604051808215151515815260200191505060405180910390f35b610519610c45565b604051808215151515815260200191505060405180910390f35b61057f6004803603604081101561054957600080fd5b81019080803573ffffffffffffffffffffffffffffffffffffffff16906020019092919080359060200190929190505050610de3565b604051808215151515815260200191505060405180910390f35b6105db600480360360208110156105af57600080fd5b81019080803573ffffffffffffffffffffffffffffffffffffffff169060200190929190505050610e5e565b6040518082815260200191505060405180910390f35b6105f9610ea6565b604051808215151515815260200191505060405180910390f35b61061b610f33565b604051808273ffffffffffffffffffffffffffffffffffffffff1673ffffffffffffffffffffffffffffffffffffffff16815260200191505060405180910390f35b610665610f59565b6040518080602001828103825283818151815260200191508051906020019080838360005b838110156106a557808201518184015260208101905061068a565b50505050905090810190601f1680156106d25780820380516001836020036101000a031916815260200191505b509250505060405180910390f35b610722600480360360208110156106f657600080fd5b81019080803573ffffffffffffffffffffffffffffffffffffffff169060200190929190505050610ffb565b005b61072c61106c565b005b61073661107e565b6040518082815260200191505060405180910390f35b6107986004803603604081101561076257600080fd5b81019080803573ffffffffffffffffffffffffffffffffffffffff16906020019092919080359060200190929190505050611084565b604051808215151515815260200191505060405180910390f35b6107fe600480360360408110156107c857600080fd5b81019080803573ffffffffffffffffffffffffffffffffffffffff16906020019092919080359060200190929190505050611151565b604051808215151515815260200191505060405180910390f35b61085a6004803603602081101561082e57600080fd5b81019080803573ffffffffffffffffffffffffffffffffffffffff16906020019092919050505061116f565b604051808215151515815260200191505060405180910390f35b61087c61118c565b6040518082815260200191505060405180910390f35b6108f4600480360360408110156108a857600080fd5b81019080803573ffffffffffffffffffffffffffffffffffffffff169060200190929190803573ffffffffffffffffffffffffffffffffffffffff169060200190929190505050611192565b6040518082815260200191505060405180910390f35b610912611219565b604051808215151515815260200191505060405180910390f35b610934611247565b6040518082815260200191505060405180910390f35b606060048054600181600116156101000203166002900480601f0160208091040260200160405190810160405280929190818152602001828054600181600116156101000203166002900480156109e25780601f106109b7576101008083540402835291602001916109e2565b820191906000526020600020905b8154815290600101906020018083116109c557829003601f168201915b5050505050905090565b6000610a006109f961124d565b8484611255565b6001905092915050565b600d6020528060005260406000206000915090505481565b6000600254905090565b6000610a378261144c565b610a4d60016009546114a690919063ffffffff16565b600981905550610a5c8261152e565b5060019050919050565b600a5481565b6000610a79848484611584565b610b3a84610a8561124d565b610b358560405180606001604052806028815260200161218160289139600160008b73ffffffffffffffffffffffffffffffffffffffff1673ffffffffffffffffffffffffffffffffffffffff1681526020019081526020016000206000610aeb61124d565b73ffffffffffffffffffffffffffffffffffffffff1673ffffffffffffffffffffffffffffffffffffffff1681526020019081526020016000205461183a9092919063ffffffff16565b611255565b600190509392505050565b600b5481565b6000600660009054906101000a900460ff16905090565b6000610b7a60016009546118fa90919063ffffffff16565b600981905550610b8982611944565b60019050919050565b6000610c3b610b9f61124d565b84610c368560016000610bb061124d565b73ffffffffffffffffffffffffffffffffffffffff1673ffffffffffffffffffffffffffffffffffffffff16815260200190815260200160002060008973ffffffffffffffffffffffffffffffffffffffff1673ffffffffffffffffffffffffffffffffffffffff168152602001908152602001600020546114a690919063ffffffff16565b611255565b6001905092915050565b6000610c503361116f565b610c9d576040517f08c379a0000000000000000000000000000000000000000000000000000000008152600401808060200182810382526000815260200160200191505060405180910390fd5b6000610ca761199e565b905060008111610cfa576040517f08c379a0000000000000000000000000000000000000000000000000000000008152600401808060200182810382526000815260200160200191505060405180910390fd5b600c60009054906101000a900473ffffffffffffffffffffffffffffffffffffffff1673ffffffffffffffffffffffffffffffffffffffff1663a9059cbb33836040518363ffffffff1660e01b8152600401808373ffffffffffffffffffffffffffffffffffffffff1673ffffffffffffffffffffffffffffffffffffffff16815260200182815260200192505050602060405180830381600087803b158015610da357600080fd5b505af1158015610db7573d6000803e3d6000fd5b505050506040513d6020811015610dcd57600080fd5b8101908080519060200190929190505050505090565b6000610df5610df061124d565b61116f565b610e4a576040517f08c379a000000000000000000000000000000000000000000000000000000000815260040180806020018281038252603081526020018061210f6030913960400191505060405180910390fd5b610e548383611a0e565b6001905092915050565b60008060008373ffffffffffffffffffffffffffffffffffffffff1673ffffffffffffffffffffffffffffffffffffffff168152602001908152602001600020549050919050565b6000610eb13361116f565b610efe576040517f08c379a0000000000000000000000000000000000000000000000000000000008152600401808060200182810382526000815260200160200191505060405180910390fd5b6000610f08611219565b9050600015158115151415610f21576000915050610f30565b610f29611bc9565b5060019150505b90565b600c60009054906101000a900473ffffffffffffffffffffffffffffffffffffffff1681565b606060058054600181600116156101000203166002900480601f016020809104026020016040519081016040528092919081815260200182805460018160011615610100020316600290048015610ff15780601f10610fc657610100808354040283529160200191610ff1565b820191906000526020600020905b815481529060010190602001808311610fd457829003601f168201915b5050505050905090565b61100b61100661124d565b61116f565b611060576040517f08c379a000000000000000000000000000000000000000000000000000000000815260040180806020018281038252603081526020018061210f6030913960400191505060405180910390fd5b6110698161144c565b50565b61107c61107761124d565b611944565b565b60095481565b600061114761109161124d565b846111428560405180606001604052806025815260200161221460259139600160006110bb61124d565b73ffffffffffffffffffffffffffffffffffffffff1673ffffffffffffffffffffffffffffffffffffffff16815260200190815260200160002060008a73ffffffffffffffffffffffffffffffffffffffff1673ffffffffffffffffffffffffffffffffffffffff1681526020019081526020016000205461183a9092919063ffffffff16565b611255565b6001905092915050565b600061116561115e61124d565b8484611584565b6001905092915050565b6000611185826003611c4390919063ffffffff16565b9050919050565b60075481565b6000600160008473ffffffffffffffffffffffffffffffffffffffff1673ffffffffffffffffffffffffffffffffffffffff16815260200190815260200160002060008373ffffffffffffffffffffffffffffffffffffffff1673ffffffffffffffffffffffffffffffffffffffff16815260200190815260200160002054905092915050565b60008043905060006008549050600b54810182111561123d57600192505050611244565b6000925050505b90565b60085481565b600033905090565b600073ffffffffffffffffffffffffffffffffffffffff168373ffffffffffffffffffffffffffffffffffffffff1614156112db576040517f08c379a00000000000000000000000000000000000000000000000000000000081526004018080602001828103825260248152602001806121f06024913960400191505060405180910390fd5b600073ffffffffffffffffffffffffffffffffffffffff168273ffffffffffffffffffffffffffffffffffffffff161415611361576040517f08c379a00000000000000000000000000000000000000000000000000000000081526004018080602001828103825260228152602001806120c76022913960400191505060405180910390fd5b80600160008573ffffffffffffffffffffffffffffffffffffffff1673ffffffffffffffffffffffffffffffffffffffff16815260200190815260200160002060008473ffffffffffffffffffffffffffffffffffffffff1673ffffffffffffffffffffffffffffffffffffffff168152602001908152602001600020819055508173ffffffffffffffffffffffffffffffffffffffff168373ffffffffffffffffffffffffffffffffffffffff167f8c5be1e5ebec7d5bd14f71427d1e84f3dd0314c0f7b2291e5b200ac8c7c3b925836040518082815260200191505060405180910390a3505050565b611460816003611d2190919063ffffffff16565b8073ffffffffffffffffffffffffffffffffffffffff167f6ae172837ea30b801fbfcdd4108aa1d5bf8ff775444fd70256b44e6bf3dfc3f660405160405180910390a250565b600080828401905083811015611524576040517f08c379a000000000000000000000000000000000000000000000000000000000815260040180806020018281038252601b8152602001807f536166654d6174683a206164646974696f6e206f766572666c6f77000000000081525060200191505060405180910390fd5b8091505092915050565b600080600754905080600d60008573ffffffffffffffffffffffffffffffffffffffff1673ffffffffffffffffffffffffffffffffffffffff168152602001908152602001600020819055506001915050919050565b600073ffffffffffffffffffffffffffffffffffffffff168373ffffffffffffffffffffffffffffffffffffffff16141561160a576040517f08c379a00000000000000000000000000000000000000000000000000000000081526004018080602001828103825260258152602001806121cb6025913960400191505060405180910390fd5b600073ffffffffffffffffffffffffffffffffffffffff168273ffffffffffffffffffffffffffffffffffffffff161415611690576040517f08c379a00000000000000000000000000000000000000000000000000000000081526004018080602001828103825260238152602001806120a46023913960400191505060405180910390fd5b6116fb816040518060600160405280602681526020016120e9602691396000808773ffffffffffffffffffffffffffffffffffffffff1673ffffffffffffffffffffffffffffffffffffffff1681526020019081526020016000205461183a9092919063ffffffff16565b6000808573ffffffffffffffffffffffffffffffffffffffff1673ffffffffffffffffffffffffffffffffffffffff1681526020019081526020016000208190555061178e816000808573ffffffffffffffffffffffffffffffffffffffff1673ffffffffffffffffffffffffffffffffffffffff168152602001908152602001600020546114a690919063ffffffff16565b6000808473ffffffffffffffffffffffffffffffffffffffff1673ffffffffffffffffffffffffffffffffffffffff168152602001908152602001600020819055508173ffffffffffffffffffffffffffffffffffffffff168373ffffffffffffffffffffffffffffffffffffffff167fddf252ad1be2c89b69c2b068fc378daa952ba7f163c4a11628f55a4df523b3ef836040518082815260200191505060405180910390a3505050565b60008383111582906118e7576040517f08c379a00000000000000000000000000000000000000000000000000000000081526004018080602001828103825283818151815260200191508051906020019080838360005b838110156118ac578082015181840152602081019050611891565b50505050905090810190601f1680156118d95780820380516001836020036101000a031916815260200191505b509250505060405180910390fd5b5060008385039050809150509392505050565b600061193c83836040518060400160405280601e81526020017f536166654d6174683a207375627472616374696f6e206f766572666c6f77000081525061183a565b905092915050565b611958816003611dfc90919063ffffffff16565b8073ffffffffffffffffffffffffffffffffffffffff167fe94479a9f7e1952cc78f2d6baab678adc1b772d936c6583def489e524cb6669260405160405180910390a250565b600080600d60003373ffffffffffffffffffffffffffffffffffffffff1673ffffffffffffffffffffffffffffffffffffffff16815260200190815260200160002054905060006119fa826007546118fa90919063ffffffff16565b9050611a053361152e565b50809250505090565b600073ffffffffffffffffffffffffffffffffffffffff168273ffffffffffffffffffffffffffffffffffffffff161415611ab1576040517f08c379a000000000000000000000000000000000000000000000000000000000815260040180806020018281038252601f8152602001807f45524332303a206d696e7420746f20746865207a65726f20616464726573730081525060200191505060405180910390fd5b611ac6816002546114a690919063ffffffff16565b600281905550611b1d816000808573ffffffffffffffffffffffffffffffffffffffff1673ffffffffffffffffffffffffffffffffffffffff168152602001908152602001600020546114a690919063ffffffff16565b6000808473ffffffffffffffffffffffffffffffffffffffff1673ffffffffffffffffffffffffffffffffffffffff168152602001908152602001600020819055508173ffffffffffffffffffffffffffffffffffffffff16600073ffffffffffffffffffffffffffffffffffffffff167fddf252ad1be2c89b69c2b068fc378daa952ba7f163c4a11628f55a4df523b3ef836040518082815260200191505060405180910390a35050565b6000804390506000611bfa600a54611bec600854856118fa90919063ffffffff16565b611eb990919063ffffffff16565b905081600881905550611c2f600c60009054906101000a900473ffffffffffffffffffffffffffffffffffffffff1682610de3565b50611c3981611f3f565b5060019250505090565b60008073ffffffffffffffffffffffffffffffffffffffff168273ffffffffffffffffffffffffffffffffffffffff161415611cca576040517f08c379a00000000000000000000000000000000000000000000000000000000081526004018080602001828103825260228152602001806121a96022913960400191505060405180910390fd5b8260000160008373ffffffffffffffffffffffffffffffffffffffff1673ffffffffffffffffffffffffffffffffffffffff16815260200190815260200160002060009054906101000a900460ff16905092915050565b611d2b8282611c43565b15611d9e576040517f08c379a000000000000000000000000000000000000000000000000000000000815260040180806020018281038252601f8152602001807f526f6c65733a206163636f756e7420616c72656164792068617320726f6c650081525060200191505060405180910390fd5b60018260000160008373ffffffffffffffffffffffffffffffffffffffff1673ffffffffffffffffffffffffffffffffffffffff16815260200190815260200160002060006101000a81548160ff0219169083151502179055505050565b611e068282611c43565b611e5b576040517f08c379a000000000000000000000000000000000000000000000000000000000815260040180806020018281038252602181526020018061213f6021913960400191505060405180910390fd5b60008260000160008373ffffffffffffffffffffffffffffffffffffffff1673ffffffffffffffffffffffffffffffffffffffff16815260200190815260200160002060006101000a81548160ff0219169083151502179055505050565b600080831415611ecc5760009050611f39565b6000828402905082848281611edd57fe5b0414611f34576040517f08c379a00000000000000000000000000000000000000000000000000000000081526004018080602001828103825260218152602001806121606021913960400191505060405180910390fd5b809150505b92915050565b600080611f5760095484611f6d90919063ffffffff16565b9050611f6281611fb7565b506001915050919050565b6000611faf83836040518060400160405280601a81526020017f536166654d6174683a206469766973696f6e206279207a65726f000000000000815250611fdd565b905092915050565b6000611fce826007546114a690919063ffffffff16565b60078190555060019050919050565b60008083118290612089576040517f08c379a00000000000000000000000000000000000000000000000000000000081526004018080602001828103825283818151815260200191508051906020019080838360005b8381101561204e578082015181840152602081019050612033565b50505050905090810190601f16801561207b5780820380516001836020036101000a031916815260200191505b509250505060405180910390fd5b50600083858161209557fe5b04905080915050939250505056fe45524332303a207472616e7366657220746f20746865207a65726f206164647265737345524332303a20617070726f766520746f20746865207a65726f206164647265737345524332303a207472616e7366657220616d6f756e7420657863656564732062616c616e63654d696e746572526f6c653a2063616c6c657220646f6573206e6f74206861766520746865204d696e74657220726f6c65526f6c65733a206163636f756e7420646f6573206e6f74206861766520726f6c65536166654d6174683a206d756c7469706c69636174696f6e206f766572666c6f7745524332303a207472616e7366657220616d6f756e74206578636565647320616c6c6f77616e6365526f6c65733a206163636f756e7420697320746865207a65726f206164647265737345524332303a207472616e736665722066726f6d20746865207a65726f206164647265737345524332303a20617070726f76652066726f6d20746865207a65726f206164647265737345524332303a2064656372656173656420616c6c6f77616e63652062656c6f77207a65726fa165627a7a7230582016184c1d7dab55f9ad415604c5f85bbaf7bb0a7a8d26d3df2f2f850c993bfc430029526f6c65733a206163636f756e7420697320746865207a65726f2061646472657373",
  "source": "pragma solidity ^0.5.2;\n\nimport './openzeppelin-solidity/contracts/token/ERC20/ERC20Detailed.sol';\nimport './openzeppelin-solidity/contracts/token/ERC20/ERC20Mintable.sol';\n\n\ncontract ERC1973 is ERC20Mintable, ERC20Detailed {\n\n    using SafeMath for uint256;\n    uint256 public roundMask;\n    uint256 public lastMintedBlockNumber;\n    uint256 public totalParticipants = 0;\n    uint256 public tokensPerBlock;\n    uint256 public blockFreezeInterval;\n    address public tokencontractAddress = address(this);\n    mapping(address => uint256) public participantMask;\n\n    /**\n     * @dev constructor, initializes variables.\n     * @param _tokensPerBlock The amount of token that will be released per block, entered in wei format (E.g. 1000000000000000000)\n     * @param _blockFreezeInterval The amount of blocks that need to pass (E.g. 1, 10, 100) before more tokens are brought into the ecosystem.\n     */\n     constructor(uint256 _tokensPerBlock, uint256 _blockFreezeInterval) public ERC20Detailed(\"Simple\", \"SIM\", 18){\n        lastMintedBlockNumber = block.number;\n        tokensPerBlock = _tokensPerBlock;\n        blockFreezeInterval = _blockFreezeInterval;\n    }\n\n    /**\n     * @dev Modifier to check if msg.sender is whitelisted as a minter.\n     */\n    modifier isAuthorized() {\n        require(isMinter(msg.sender),'');\n        _;\n    }\n    /**\n     * @dev Function to add participants in the network.\n     * @param _minter The address that will be able to mint tokens.\n     * @return A boolean that indicates if the operation was successful.\n     */\n    function addMinters(address _minter) external returns (bool) {\n        _addMinter(_minter);\n        totalParticipants = totalParticipants.add(1);\n        updateParticipantMask(_minter);\n        return true;\n    }\n    /**\n     * @dev Function to remove participants in the network.\n     * @param _minter The address that will be unable to mint tokens.\n     * @return A boolean that indicates if the operation was successful.\n     */\n    function removeMinters(address _minter) external returns (bool) {\n        totalParticipants = totalParticipants.sub(1);\n        _removeMinter(_minter);\n        return true;\n    }\n\n\n    /**\n     * @dev Function to introduce new tokens in the network.\n     * @return A boolean that indicates if the operation was successful.\n     */\n    function trigger() external isAuthorized returns (bool) {\n    bool res = readyToMint();\n    if(res == false) {\n    return false;\n    } else {\n    mintTokens();\n    return true;\n     }\n    }\n\n    /**\n     * @dev Function to withdraw rewarded tokens by a participant.\n     * @return A boolean that indicates if the operation was successful.\n     */\n    function withdraw() external isAuthorized returns (bool) {\n    uint256 amount = calculateRewards();\n    require(amount > 0, '');\n    ERC20(tokencontractAddress).transfer(msg.sender, amount);\n    }\n\n    /**\n     * @dev Function to check if new tokens are ready to be minted.\n     * @return A boolean that indicates if the operation was successful.\n     */\n    function readyToMint() public view returns (bool) {\n    uint256 currentBlockNumber = block.number;\n    uint256 lastBlockNumber = lastMintedBlockNumber;\n    if(currentBlockNumber > lastBlockNumber + blockFreezeInterval) {\n    return true;\n    } else {\n    return false;\n    }\n    }\n\n    /**\n     * @dev Function to calculate current rewards for a participant.\n     * @return A uint that returns the calculated rewards amount.\n     */\n    function calculateRewards() private returns (uint256) {\n    uint256 playerMask = participantMask[msg.sender];\n    uint256 rewards = roundMask.sub(playerMask);\n    updateParticipantMask(msg.sender);\n    return rewards;\n    }\n\n    /**\n     * @dev Function to mint new tokens into the economy.\n     * @return A boolean that indicates if the operation was successful.\n     */\n    function mintTokens() private returns (bool) {\n    uint256 currentBlockNumber = block.number;\n    uint256 tokenReleaseAmount = (currentBlockNumber.sub(lastMintedBlockNumber)).mul(tokensPerBlock);\n    lastMintedBlockNumber = currentBlockNumber;\n    mint(tokencontractAddress, tokenReleaseAmount);\n    calculateTPP(tokenReleaseAmount);\n    return true;\n    }\n\n     /**\n    * @dev Function to calculate TPP (token amount per participant).\n    * @return A boolean that indicates if the operation was successful.\n    */\n    function calculateTPP(uint256 tokens) private returns (bool) {\n    uint256 tpp = tokens.div(totalParticipants);\n    updateRoundMask(tpp);\n    return true;\n    }\n\n     /**\n    * @dev Function to update round mask.\n    * @return A boolean that indicates if the operation was successful.\n    */\n    function updateRoundMask(uint256 tpp) private returns (bool) {\n    roundMask = roundMask.add(tpp);\n    return true;\n    }\n\n     /**\n    * @dev Function to update participant mask (store the previous round mask)\n    * @return A boolean that indicates if the operation was successful.\n    */\n    function updateParticipantMask(address participant) private returns (bool) {\n    uint256 previousRoundMask = roundMask;\n    participantMask[participant] = previousRoundMask;\n    return true;\n    }\n\n}",
  "sourcePath": "/home/louis/Desktop/Marketplace/contracts/ERC1973.sol",
  "compiler": {
    "name": "solc",
    "version": "0.5.8+commit.23d335f2.Emscripten.clang"
  },
  "schemaVersion": "3.0.11",
  "updatedAt": "2019-11-29T09:15:23.370Z",
  "devdoc": {
    "methods": {
      "addMinters(address)": {
        "details": "Function to add participants in the network.",
        "params": {
          "_minter": "The address that will be able to mint tokens."
        },
        "return": "A boolean that indicates if the operation was successful."
      },
      "allowance(address,address)": {
        "details": "See {IERC20-allowance}."
      },
      "approve(address,uint256)": {
        "details": "See {IERC20-approve}.     * Requirements:     * - `spender` cannot be the zero address."
      },
      "balanceOf(address)": {
        "details": "See {IERC20-balanceOf}."
      },
      "constructor": {
        "details": "constructor, initializes variables.",
        "params": {
          "_blockFreezeInterval": "The amount of blocks that need to pass (E.g. 1, 10, 100) before more tokens are brought into the ecosystem.",
          "_tokensPerBlock": "The amount of token that will be released per block, entered in wei format (E.g. 1000000000000000000)"
        }
      },
      "decimals()": {
        "details": "Returns the number of decimals used to get its user representation. For example, if `decimals` equals `2`, a balance of `505` tokens should be displayed to a user as `5,05` (`505 / 10 ** 2`).     * Tokens usually opt for a value of 18, imitating the relationship between Ether and Wei.     * NOTE: This information is only used for _display_ purposes: it in no way affects any of the arithmetic of the contract, including {IERC20-balanceOf} and {IERC20-transfer}."
      },
      "decreaseAllowance(address,uint256)": {
        "details": "Atomically decreases the allowance granted to `spender` by the caller.     * This is an alternative to {approve} that can be used as a mitigation for problems described in {IERC20-approve}.     * Emits an {Approval} event indicating the updated allowance.     * Requirements:     * - `spender` cannot be the zero address. - `spender` must have allowance for the caller of at least `subtractedValue`."
      },
      "increaseAllowance(address,uint256)": {
        "details": "Atomically increases the allowance granted to `spender` by the caller.     * This is an alternative to {approve} that can be used as a mitigation for problems described in {IERC20-approve}.     * Emits an {Approval} event indicating the updated allowance.     * Requirements:     * - `spender` cannot be the zero address."
      },
      "mint(address,uint256)": {
        "details": "See {ERC20-_mint}.     * Requirements:     * - the caller must have the {MinterRole}."
      },
      "name()": {
        "details": "Returns the name of the token."
      },
      "readyToMint()": {
        "details": "Function to check if new tokens are ready to be minted.",
        "return": "A boolean that indicates if the operation was successful."
      },
      "removeMinters(address)": {
        "details": "Function to remove participants in the network.",
        "params": {
          "_minter": "The address that will be unable to mint tokens."
        },
        "return": "A boolean that indicates if the operation was successful."
      },
      "symbol()": {
        "details": "Returns the symbol of the token, usually a shorter version of the name."
      },
      "totalSupply()": {
        "details": "See {IERC20-totalSupply}."
      },
      "transfer(address,uint256)": {
        "details": "See {IERC20-transfer}.     * Requirements:     * - `recipient` cannot be the zero address. - the caller must have a balance of at least `amount`."
      },
      "transferFrom(address,address,uint256)": {
        "details": "See {IERC20-transferFrom}.     * Emits an {Approval} event indicating the updated allowance. This is not required by the EIP. See the note at the beginning of {ERC20};     * Requirements: - `sender` and `recipient` cannot be the zero address. - `sender` must have a balance of at least `amount`. - the caller must have allowance for `sender`'s tokens of at least `amount`."
      },
      "trigger()": {
        "details": "Function to introduce new tokens in the network.",
        "return": "A boolean that indicates if the operation was successful."
      },
      "withdraw()": {
        "details": "Function to withdraw rewarded tokens by a participant.",
        "return": "A boolean that indicates if the operation was successful."
      }
    }
  },
  "userdoc": {
    "methods": {}
  }
}